:100000000C942A000C943C000C943C000C943C0092
:100010000C943C000C943C000C943C000C943C0070
:100020000C943C000C943C000C943C000C943C0060
:100030000C943C000C943C000C943C000C943C0050
:100040000C943C000C943C000C943C000C943C0040
:100050000C943C0011241FBECFE5D8E0DEBFCDBF1D
:1000600020E0A0E6B0E001C01D92AA36B207E1F799
:100070000E944A000C94A9000C9400000E944F00BA
:10008000089580E690E00E94880080E690E00E945B
:10009000720008950E943E000E944100FDCF80B58D
:1000A000806480BD529880B5846080BD519A80B5CF
:1000B0008F7E80BD80B58F7D80BD80B5877F80BD00
:1000C000579856985598549A539A599A10BC8CE060
:1000D00089B908955D9BFECF8CB908955F9BFECFD3
:1000E0008CB108950F931F93CF93FC0180818823D7
:1000F00059F08F01C0E00E946A00CF5FF801EC0F59
:10010000F11D80818111F7CFCF911F910F9108953B
:10011000EF92FF920F931F93CF937C010E946E008A
:10012000F70180838D3061F0C0E0CF5F87010C0F55
:10013000111D0E946E00F80180838D30B1F701C05F
:100140008701F8011082CF911F910F91FF90EF90DE
:060150000895F894FFCFB2
:00000001FF
